{"contracts/FileRegistry.sol":{"FileRegistry":{"abi":[{"inputs":[],"stateMutability":"nonpayable","type":"constructor"},{"anonymous":false,"inputs":[{"indexed":true,"internalType":"string","name":"fileId","type":"string"},{"indexed":false,"internalType":"address","name":"deactivator","type":"address"},{"indexed":false,"internalType":"uint256","name":"timestamp","type":"uint256"}],"name":"FileDeactivated","type":"event"},{"anonymous":false,"inputs":[{"indexed":true,"internalType":"string","name":"fileId","type":"string"},{"indexed":true,"internalType":"bytes32","name":"sha256Hash","type":"bytes32"},{"indexed":false,"internalType":"string","name":"fileName","type":"string"},{"indexed":true,"internalType":"address","name":"uploader","type":"address"},{"indexed":false,"internalType":"uint256","name":"timestamp","type":"uint256"}],"name":"FileRegistered","type":"event"},{"inputs":[{"internalType":"string","name":"fileId","type":"string"}],"name":"deactivateFile","outputs":[],"stateMutability":"nonpayable","type":"function"},{"inputs":[{"internalType":"string","name":"sha256HashHex","type":"string"}],"name":"findFileByHash","outputs":[{"internalType":"string","name":"fileId","type":"string"}],"stateMutability":"view","type":"function"},{"inputs":[{"internalType":"string","name":"fileId","type":"string"}],"name":"getFileInfo","outputs":[{"internalType":"string","name":"id","type":"string"},{"internalType":"string","name":"sha256HashHex","type":"string"},{"internalType":"string","name":"fileName","type":"string"},{"internalType":"string","name":"fileType","type":"string"},{"internalType":"uint256","name":"fileSize","type":"uint256"},{"internalType":"address","name":"uploader","type":"address"},{"internalType":"uint256","name":"timestamp","type":"uint256"},{"internalType":"string","name":"description","type":"string"}],"stateMutability":"view","type":"function"},{"inputs":[{"internalType":"address","name":"uploader","type":"address"}],"name":"getFilesByUploader","outputs":[{"internalType":"string[]","name":"","type":"string[]"}],"stateMutability":"view","type":"function"},{"inputs":[],"name":"getTotalFiles","outputs":[{"internalType":"uint256","name":"","type":"uint256"}],"stateMutability":"view","type":"function"},{"inputs":[],"name":"owner","outputs":[{"internalType":"address","name":"","type":"address"}],"stateMutability":"view","type":"function"},{"inputs":[{"internalType":"string","name":"sha256HashHex","type":"string"},{"internalType":"string","name":"fileName","type":"string"},{"internalType":"string","name":"fileType","type":"string"},{"internalType":"uint256","name":"fileSize","type":"uint256"},{"internalType":"string","name":"description","type":"string"}],"name":"registerFile","outputs":[{"internalType":"string","name":"fileId","type":"string"}],"stateMutability":"nonpayable","type":"function"}],"evm":{"bytecode":{"linkReferences":{},"object":"608060405234801561001057600080fd5b50600480546001600160a01b031916331790556000600355611608806100376000396000f3fe608060405234801561001057600080fd5b506004361061007d5760003560e01c80636c3388861161005b5780636c338886146100e557806374546fdf14610105578063766e0d331461011a5780638da5cb5b1461012b57600080fd5b80630cc9c17b146100825780630f52b80f146100b25780632c10cb96146100d2575b600080fd5b61009561009036600461108d565b610156565b6040516100a998979695949392919061111a565b60405180910390f35b6100c56100c03660046111aa565b61044b565b6040516100a99190611261565b6100c56100e036600461108d565b610791565b6100f86100f336600461127b565b610862565b6040516100a991906112a4565b61011861011336600461108d565b610951565b005b6003546040519081526020016100a9565b60045461013e906001600160a01b031681565b6040516001600160a01b0390911681526020016100a9565b60608060608060008060006060886000816040516101749190611306565b9081526040519081900360200190206008015460ff166101af5760405162461bcd60e51b81526004016101a690611322565b60405180910390fd5b6000808b6040516101c09190611306565b908152602001604051809103902090508060000180546101df9061136a565b80601f016020809104026020016040519081016040528092919081815260200182805461020b9061136a565b80156102585780601f1061022d57610100808354040283529160200191610258565b820191906000526020600020905b81548152906001019060200180831161023b57829003601f168201915b5050505050995061026c8160010154610aa8565b985080600201805461027d9061136a565b80601f01602080910402602001604051908101604052809291908181526020018280546102a99061136a565b80156102f65780601f106102cb576101008083540402835291602001916102f6565b820191906000526020600020905b8154815290600101906020018083116102d957829003601f168201915b5050505050975080600301805461030c9061136a565b80601f01602080910402602001604051908101604052809291908181526020018280546103389061136a565b80156103855780601f1061035a57610100808354040283529160200191610385565b820191906000526020600020905b81548152906001019060200180831161036857829003601f168201915b50505050600483015460058401546006850154600786018054959c50929a506001600160a01b0390911698509650916103be915061136a565b80601f01602080910402602001604051908101604052809291908181526020018280546103ea9061136a565b80156104375780601f1061040c57610100808354040283529160200191610437565b820191906000526020600020905b81548152906001019060200180831161041a57829003601f168201915b505050505092505050919395975091939597565b6060855160401461046e5760405162461bcd60e51b81526004016101a6906113a4565b60008551116104bf5760405162461bcd60e51b815260206004820181905260248201527f46696c6552656769737472793a2066696c65206e616d6520726571756972656460448201526064016101a6565b6000831161051b5760405162461bcd60e51b815260206004820152602360248201527f46696c6552656769737472793a2066696c652073697a65206d7573742062652060448201526203e20360ec1b60648201526084016101a6565b600061052687610c02565b60008181526001602052604090208054919250906105439061136a565b1590506105af5760405162461bcd60e51b815260206004820152603460248201527f46696c6552656769737472793a2066696c6520776974682074686973206861736044820152731a08185b1c9958591e481c9959da5cdd195c995960621b60648201526084016101a6565b6105ba813342610d14565b9150604051806101200160405280838152602001828152602001878152602001868152602001858152602001336001600160a01b03168152602001428152602001848152602001600115158152506000836040516106189190611306565b90815260405190819003602001902081518190610635908261143c565b506020820151600182015560408201516002820190610654908261143c565b5060608201516003820190610669908261143c565b506080820151600482015560a08201516005820180546001600160a01b0319166001600160a01b0390921691909117905560c0820151600682015560e082015160078201906106b8908261143c565b5061010091909101516008909101805460ff191691151591909117905560008181526001602052604090206106ed838261143c565b5033600090815260026020908152604082208054600181018255908352912001610717838261143c565b506003805490600061072883611512565b9190505550336001600160a01b031681836040516107469190611306565b60405180910390207fe6c983eb41ceffcbdd7a5f6c460b3f725dfe7286ca7d739d7d270e99f976e616894260405161077f92919061152b565b60405180910390a45095945050505050565b606081516040146107b45760405162461bcd60e51b81526004016101a6906113a4565b60006107bf83610c02565b60008181526001602052604090208054919250906107dc9061136a565b80601f01602080910402602001604051908101604052809291908181526020018280546108089061136a565b80156108555780601f1061082a57610100808354040283529160200191610855565b820191906000526020600020905b81548152906001019060200180831161083857829003601f168201915b5050505050915050919050565b6001600160a01b0381166000908152600260209081526040808320805482518185028101850190935280835260609492939192909184015b828210156109465783829060005260206000200180546108b99061136a565b80601f01602080910402602001604051908101604052809291908181526020018280546108e59061136a565b80156109325780601f1061090757610100808354040283529160200191610932565b820191906000526020600020905b81548152906001019060200180831161091557829003601f168201915b50505050508152602001906001019061089a565b505050509050919050565b806000816040516109629190611306565b9081526040519081900360200190206008015460ff166109945760405162461bcd60e51b81526004016101a690611322565b6000826040516109a49190611306565b90815260405190819003602001902060050154336001600160a01b0390911614806109d957506004546001600160a01b031633145b610a255760405162461bcd60e51b815260206004820152601c60248201527f46696c6552656769737472793a206e6f7420617574686f72697a65640000000060448201526064016101a6565b60008083604051610a369190611306565b908152604051908190036020018120600801805492151560ff1990931692909217909155610a65908390611306565b60408051918290038220338352426020840152917fa200475b69e9608cfe8e486fe4a126c3cd199ee55fb43a44e289dba365617fb3910160405180910390a25050565b604080518082018252601081526f181899199a1a9b1b9c1cb0b131b232b360811b6020820152815182815260608181018452926000919060208201818036833701905050905060005b6020811015610bfa57826004868360208110610b0f57610b0f61154d565b835191901a90911c60ff16908110610b2957610b2961154d565b01602001516001600160f81b03191682610b44836002611563565b81518110610b5457610b5461154d565b60200101906001600160f81b031916908160001a90535082858260208110610b7e57610b7e61154d565b1a60f81b60f81c600f1660ff1681518110610b9b57610b9b61154d565b01602001516001600160f81b03191682610bb6836002611563565b610bc190600161157a565b81518110610bd157610bd161154d565b60200101906001600160f81b031916908160001a90535080610bf281611512565b915050610af1565b509392505050565b80516000908290604014610c6a5760405162461bcd60e51b815260206004820152602960248201527f46696c6552656769737472793a2068657820737472696e67206d75737420626560448201526820363420636861727360b81b60648201526084016101a6565b60005b6020811015610d0d576000610cab83610c87846002611563565b81518110610c9757610c9761154d565b01602001516001600160f81b031916610ec0565b90506000610cc984610cbe856002611563565b610c8790600161157a565b9050610ff0600483901b168117610ce184601f61158d565b610cec906008611563565b60ff909116901b949094179350819050610d0581611512565b915050610c6d565b5050919050565b60606000848484604051602001610d509392919092835260609190911b6bffffffffffffffffffffffff19166020830152603482015260540190565b60408051601f198184030181528282528051602091820120838301835260108085526f181899199a1a9b1b9c1ca0a121a222a360811b838601528351818152808501909452909450600092918201818036833701905050905060005b6008811015610eb557826004858360208110610dca57610dca61154d565b835191901a90911c60ff16908110610de457610de461154d565b01602001516001600160f81b03191682610dff836002611563565b81518110610e0f57610e0f61154d565b60200101906001600160f81b031916908160001a90535082848260208110610e3957610e3961154d565b1a60f81b60f81c600f1660ff1681518110610e5657610e5661154d565b01602001516001600160f81b03191682610e71836002611563565b610e7c90600161157a565b81518110610e8c57610e8c61154d565b60200101906001600160f81b031916908160001a90535080610ead81611512565b915050610dac565b509695505050505050565b6000600360fc1b6001600160f81b0319831610801590610eee5750603960f81b6001600160f81b0319831611155b15610f0857610f02603060f884901c6115a0565b92915050565b606160f81b6001600160f81b0319831610801590610f345750603360f91b6001600160f81b0319831611155b15610f54576061610f4a60f884901c600a6115b9565b610f0291906115a0565b604160f81b6001600160f81b0319831610801590610f805750602360f91b6001600160f81b0319831611155b15610f96576041610f4a60f884901c600a6115b9565b60405162461bcd60e51b815260206004820152602360248201527f46696c6552656769737472793a20696e76616c696420686578206368617261636044820152623a32b960e91b60648201526084016101a6565b634e487b7160e01b600052604160045260246000fd5b600082601f83011261101157600080fd5b813567ffffffffffffffff8082111561102c5761102c610fea565b604051601f8301601f19908116603f0116810190828211818310171561105457611054610fea565b8160405283815286602085880101111561106d57600080fd5b836020870160208301376000602085830101528094505050505092915050565b60006020828403121561109f57600080fd5b813567ffffffffffffffff8111156110b657600080fd5b6110c284828501611000565b949350505050565b60005b838110156110e55781810151838201526020016110cd565b50506000910152565b600081518084526111068160208601602086016110ca565b601f01601f19169290920160200192915050565b600061010080835261112e8184018c6110ee565b90508281036020840152611142818b6110ee565b90508281036040840152611156818a6110ee565b9050828103606084015261116a81896110ee565b608084018890526001600160a01b03871660a085015260c0840186905283810360e0850152905061119b81856110ee565b9b9a5050505050505050505050565b600080600080600060a086880312156111c257600080fd5b853567ffffffffffffffff808211156111da57600080fd5b6111e689838a01611000565b965060208801359150808211156111fc57600080fd5b61120889838a01611000565b9550604088013591508082111561121e57600080fd5b61122a89838a01611000565b945060608801359350608088013591508082111561124757600080fd5b5061125488828901611000565b9150509295509295909350565b60208152600061127460208301846110ee565b9392505050565b60006020828403121561128d57600080fd5b81356001600160a01b038116811461127457600080fd5b6000602080830181845280855180835260408601915060408160051b870101925083870160005b828110156112f957603f198886030184526112e78583516110ee565b945092850192908501906001016112cb565b5092979650505050505050565b600082516113188184602087016110ca565b9190910192915050565b60208082526028908201527f46696c6552656769737472793a2066696c65206e6f7420666f756e64206f7220604082015267696e61637469766560c01b606082015260800190565b600181811c9082168061137e57607f821691505b60208210810361139e57634e487b7160e01b600052602260045260246000fd5b50919050565b60208082526029908201527f46696c6552656769737472793a20696e76616c6964205348412d3235362068616040820152680e6d040d8cadccee8d60bb1b606082015260800190565b601f82111561143757600081815260208120601f850160051c810160208610156114145750805b601f850160051c820191505b8181101561143357828155600101611420565b5050505b505050565b815167ffffffffffffffff81111561145657611456610fea565b61146a81611464845461136a565b846113ed565b602080601f83116001811461149f57600084156114875750858301515b600019600386901b1c1916600185901b178555611433565b600085815260208120601f198616915b828110156114ce578886015182559484019460019091019084016114af565b50858210156114ec5787850151600019600388901b60f8161c191681555b5050505050600190811b01905550565b634e487b7160e01b600052601160045260246000fd5b600060018201611524576115246114fc565b5060010190565b60408152600061153e60408301856110ee565b90508260208301529392505050565b634e487b7160e01b600052603260045260246000fd5b8082028115828204841417610f0257610f026114fc565b80820180821115610f0257610f026114fc565b81810381811115610f0257610f026114fc565b60ff8281168282160390811115610f0257610f026114fc565b60ff8181168382160190811115610f0257610f026114fc56fea26469706673582212208cffadd88d5146a6bee54c894c1f6768399a3f1c3a630f19a5b40b923d4854dd64736f6c63430008140033","opcodes":"PUSH1 0x80 PUSH1 0x40 MSTORE CALLVALUE DUP1 ISZERO PUSH2 0x10 JUMPI PUSH1 0x0 DUP1 REVERT JUMPDEST POP PUSH1 0x4 DUP1 SLOAD PUSH1 0x1 PUSH1 0x1 PUSH1 0xA0 SHL SUB NOT AND CALLER OR SWAP1 SSTORE PUSH1 0x0 PUSH1 0x3 SSTORE PUSH2 0x1608 DUP1 PUSH2 0x37 PUSH1 0x0 CODECOPY PUSH1 0x0 RETURN INVALID PUSH1 0x80 PUSH1 0x40 MSTORE CALLVALUE DUP1 ISZERO PUSH2 0x10 JUMPI PUSH1 0x0 DUP1 REVERT JUMPDEST POP PUSH1 0x4 CALLDATASIZE LT PUSH2 0x7D JUMPI PUSH1 0x0 CALLDATALOAD PUSH1 0xE0 SHR DUP1 PUSH4 0x6C338886 GT PUSH2 0x5B JUMPI DUP1 PUSH4 0x6C338886 EQ PUSH2 0xE5 JUMPI DUP1 PUSH4 0x74546FDF EQ PUSH2 0x105 JUMPI DUP1 PUSH4 0x766E0D33 EQ PUSH2 0x11A JUMPI DUP1 PUSH4 0x8DA5CB5B EQ PUSH2 0x12B JUMPI PUSH1 0x0 DUP1 REVERT JUMPDEST DUP1 PUSH4 0xCC9C17B EQ PUSH2 0x82 JUMPI DUP1 PUSH4 0xF52B80F EQ PUSH2 0xB2 JUMPI DUP1 PUSH4 0x2C10CB96 EQ PUSH2 0xD2 JUMPI JUMPDEST PUSH1 0x0 DUP1 REVERT JUMPDEST PUSH2 0x95 PUSH2 0x90 CALLDATASIZE PUSH1 0x4 PUSH2 0x108D JUMP JUMPDEST PUSH2 0x156 JUMP JUMPDEST PUSH1 0x40 MLOAD PUSH2 0xA9 SWAP9 SWAP8 SWAP7 SWAP6 SWAP5 SWAP4 SWAP3 SWAP2 SWAP1 PUSH2 0x111A JUMP JUMPDEST PUSH1 0x40 MLOAD DUP1 SWAP2 SUB SWAP1 RETURN JUMPDEST PUSH2 0xC5 PUSH2 0xC0 CALLDATASIZE PUSH1 0x4 PUSH2 0x11AA JUMP JUMPDEST PUSH2 0x44B JUMP JUMPDEST PUSH1 0x40 MLOAD PUSH2 0xA9 SWAP2 SWAP1 PUSH2 0x1261 JUMP JUMPDEST PUSH2 0xC5 PUSH2 0xE0 CALLDATASIZE PUSH1 0x4 PUSH2 0x108D JUMP JUMPDEST PUSH2 0x791 JUMP JUMPDEST PUSH2 0xF8 PUSH2 0xF3 CALLDATASIZE PUSH1 0x4 PUSH2 0x127B JUMP JUMPDEST PUSH2 0x862 JUMP JUMPDEST PUSH1 0x40 MLOAD PUSH2 0xA9 SWAP2 SWAP1 PUSH2 0x12A4 JUMP JUMPDEST PUSH2 0x118 PUSH2 0x113 CALLDATASIZE PUSH1 0x4 PUSH2 0x108D JUMP JUMPDEST PUSH2 0x951 JUMP JUMPDEST STOP JUMPDEST PUSH1 0x3 SLOAD PUSH1 0x40 MLOAD SWAP1 DUP2 MSTORE PUSH1 0x20 ADD PUSH2 0xA9 JUMP JUMPDEST PUSH1 0x4 SLOAD PUSH2 0x13E SWAP1 PUSH1 0x1 PUSH1 0x1 PUSH1 0xA0 SHL SUB AND DUP2 JUMP JUMPDEST PUSH1 0x40 MLOAD PUSH1 0x1 PUSH1 0x1 PUSH1 0xA0 SHL SUB SWAP1 SWAP2 AND DUP2 MSTORE PUSH1 0x20 ADD PUSH2 0xA9 JUMP JUMPDEST PUSH1 0x60 DUP1 PUSH1 0x60 DUP1 PUSH1 0x0 DUP1 PUSH1 0x0 PUSH1 0x60 DUP9 PUSH1 0x0 DUP2 PUSH1 0x40 MLOAD PUSH2 0x174 SWAP2 SWAP1 PUSH2 0x1306 JUMP JUMPDEST SWAP1 DUP2 MSTORE PUSH1 0x40 MLOAD SWAP1 DUP2 SWAP1 SUB PUSH1 0x20 ADD SWAP1 KECCAK256 PUSH1 0x8 ADD SLOAD PUSH1 0xFF AND PUSH2 0x1AF JUMPI PUSH1 0x40 MLOAD PUSH3 0x461BCD PUSH1 0xE5 SHL DUP2 MSTORE PUSH1 0x4 ADD PUSH2 0x1A6 SWAP1 PUSH2 0x1322 JUMP JUMPDEST PUSH1 0x40 MLOAD DUP1 SWAP2 SUB SWAP1 REVERT JUMPDEST PUSH1 0x0 DUP1 DUP12 PUSH1 0x40 MLOAD PUSH2 0x1C0 SWAP2 SWAP1 PUSH2 0x1306 JUMP JUMPDEST SWAP1 DUP2 MSTORE PUSH1 0x20 ADD PUSH1 0x40 MLOAD DUP1 SWAP2 SUB SWAP1 KECCAK256 SWAP1 POP DUP1 PUSH1 0x0 ADD DUP1 SLOAD PUSH2 0x1DF SWAP1 PUSH2 0x136A JUMP JUMPDEST DUP1 PUSH1 0x1F ADD PUSH1 0x20 DUP1 SWAP2 DIV MUL PUSH1 0x20 ADD PUSH1 0x40 MLOAD SWAP1 DUP2 ADD PUSH1 0x40 MSTORE DUP1 SWAP3 SWAP2 SWAP1 DUP2 DUP2 MSTORE PUSH1 0x20 ADD DUP3 DUP1 SLOAD PUSH2 0x20B SWAP1 PUSH2 0x136A JUMP JUMPDEST DUP1 ISZERO PUSH2 0x258 JUMPI DUP1 PUSH1 0x1F LT PUSH2 0x22D JUMPI PUSH2 0x100 DUP1 DUP4 SLOAD DIV MUL DUP4 MSTORE SWAP2 PUSH1 0x20 ADD SWAP2 PUSH2 0x258 JUMP JUMPDEST DUP3 ADD SWAP2 SWAP1 PUSH1 0x0 MSTORE PUSH1 0x20 PUSH1 0x0 KECCAK256 SWAP1 JUMPDEST DUP2 SLOAD DUP2 MSTORE SWAP1 PUSH1 0x1 ADD SWAP1 PUSH1 0x20 ADD DUP1 DUP4 GT PUSH2 0x23B JUMPI DUP3 SWAP1 SUB PUSH1 0x1F AND DUP3 ADD SWAP2 JUMPDEST POP POP POP POP POP SWAP10 POP PUSH2 0x26C DUP2 PUSH1 0x1 ADD SLOAD PUSH2 0xAA8 JUMP JUMPDEST SWAP9 POP DUP1 PUSH1 0x2 ADD DUP1 SLOAD PUSH2 0x27D SWAP1 PUSH2 0x136A JUMP JUMPDEST DUP1 PUSH1 0x1F ADD PUSH1 0x20 DUP1 SWAP2 DIV MUL PUSH1 0x20 ADD PUSH1 0x40 MLOAD SWAP1 DUP2 ADD PUSH1 0x40 MSTORE DUP1 SWAP3 SWAP2 SWAP1 DUP2 DUP2 MSTORE PUSH1 0x20 ADD DUP3 DUP1 SLOAD PUSH2 0x2A9 SWAP1 PUSH2 0x136A JUMP JUMPDEST DUP1 ISZERO PUSH2 0x2F6 JUMPI DUP1 PUSH1 0x1F LT PUSH2 0x2CB JUMPI PUSH2 0x100 DUP1 DUP4 SLOAD DIV MUL DUP4 MSTORE SWAP2 PUSH1 0x20 ADD SWAP2 PUSH2 0x2F6 JUMP JUMPDEST DUP3 ADD SWAP2 SWAP1 PUSH1 0x0 MSTORE PUSH1 0x20 PUSH1 0x0 KECCAK256 SWAP1 JUMPDEST DUP2 SLOAD DUP2 MSTORE SWAP1 PUSH1 0x1 ADD SWAP1 PUSH1 0x20 ADD DUP1 DUP4 GT PUSH2 0x2D9 JUMPI DUP3 SWAP1 SUB PUSH1 0x1F AND DUP3 ADD SWAP2 JUMPDEST POP POP POP POP POP SWAP8 POP DUP1 PUSH1 0x3 ADD DUP1 SLOAD PUSH2 0x30C SWAP1 PUSH2 0x136A JUMP JUMPDEST DUP1 PUSH1 0x1F ADD PUSH1 0x20 DUP1 SWAP2 DIV MUL PUSH1 0x20 ADD PUSH1 0x40 MLOAD SWAP1 DUP2 ADD PUSH1 0x40 MSTORE DUP1 SWAP3 SWAP2 SWAP1 DUP2 DUP2 MSTORE PUSH1 0x20 ADD DUP3 DUP1 SLOAD PUSH2 0x338 SWAP1 PUSH2 0x136A JUMP JUMPDEST DUP1 ISZERO PUSH2 0x385 JUMPI DUP1 PUSH1 0x1F LT PUSH2 0x35A JUMPI PUSH2 0x100 DUP1 DUP4 SLOAD DIV MUL DUP4 MSTORE SWAP2 PUSH1 0x20 ADD SWAP2 PUSH2 0x385 JUMP JUMPDEST DUP3 ADD SWAP2 SWAP1 PUSH1 0x0 MSTORE PUSH1 0x20 PUSH1 0x0 KECCAK256 SWAP1 JUMPDEST DUP2 SLOAD DUP2 MSTORE SWAP1 PUSH1 0x1 ADD SWAP1 PUSH1 0x20 ADD DUP1 DUP4 GT PUSH2 0x368 JUMPI DUP3 SWAP1 SUB PUSH1 0x1F AND DUP3 ADD SWAP2 JUMPDEST POP POP POP POP PUSH1 0x4 DUP4 ADD SLOAD PUSH1 0x5 DUP5 ADD SLOAD PUSH1 0x6 DUP6 ADD SLOAD PUSH1 0x7 DUP7 ADD DUP1 SLOAD SWAP6 SWAP13 POP SWAP3 SWAP11 POP PUSH1 0x1 PUSH1 0x1 PUSH1 0xA0 SHL SUB SWAP1 SWAP2 AND SWAP9 POP SWAP7 POP SWAP2 PUSH2 0x3BE SWAP2 POP PUSH2 0x136A JUMP JUMPDEST DUP1 PUSH1 0x1F ADD PUSH1 0x20 DUP1 SWAP2 DIV MUL PUSH1 0x20 ADD PUSH1 0x40 MLOAD SWAP1 DUP2 ADD PUSH1 0x40 MSTORE DUP1 SWAP3 SWAP2 SWAP1 DUP2 DUP2 MSTORE PUSH1 0x20 ADD DUP3 DUP1 SLOAD PUSH2 0x3EA SWAP1 PUSH2 0x136A JUMP JUMPDEST DUP1 ISZERO PUSH2 0x437 JUMPI DUP1 PUSH1 0x1F LT PUSH2 0x40C JUMPI PUSH2 0x100 DUP1 DUP4 SLOAD DIV MUL DUP4 MSTORE SWAP2 PUSH1 0x20 ADD SWAP2 PUSH2 0x437 JUMP JUMPDEST DUP3 ADD SWAP2 SWAP1 PUSH1 0x0 MSTORE PUSH1 0x20 PUSH1 0x0 KECCAK256 SWAP1 JUMPDEST DUP2 SLOAD DUP2 MSTORE SWAP1 PUSH1 0x1 ADD SWAP1 PUSH1 0x20 ADD DUP1 DUP4 GT PUSH2 0x41A JUMPI DUP3 SWAP1 SUB PUSH1 0x1F AND DUP3 ADD SWAP2 JUMPDEST POP POP POP POP POP SWAP3 POP POP POP SWAP2 SWAP4 SWAP6 SWAP8 POP SWAP2 SWAP4 SWAP6 SWAP8 JUMP JUMPDEST PUSH1 0x60 DUP6 MLOAD PUSH1 0x40 EQ PUSH2 0x46E JUMPI PUSH1 0x40 MLOAD PUSH3 0x461BCD PUSH1 0xE5 SHL DUP2 MSTORE PUSH1 0x4 ADD PUSH2 0x1A6 SWAP1 PUSH2 0x13A4 JUMP JUMPDEST PUSH1 0x0 DUP6 MLOAD GT PUSH2 0x4BF JUMPI PUSH1 0x40 MLOAD PUSH3 0x461BCD PUSH1 0xE5 SHL DUP2 MSTORE PUSH1 0x20 PUSH1 0x4 DUP3 ADD DUP2 SWAP1 MSTORE PUSH1 0x24 DUP3 ADD MSTORE PUSH32 0x46696C6552656769737472793A2066696C65206E616D65207265717569726564 PUSH1 0x44 DUP3 ADD MSTORE PUSH1 0x64 ADD PUSH2 0x1A6 JUMP JUMPDEST PUSH1 0x0 DUP4 GT PUSH2 0x51B JUMPI PUSH1 0x40 MLOAD PUSH3 0x461BCD PUSH1 0xE5 SHL DUP2 MSTORE PUSH1 0x20 PUSH1 0x4 DUP3 ADD MSTORE PUSH1 0x23 PUSH1 0x24 DUP3 ADD MSTORE PUSH32 0x46696C6552656769737472793A2066696C652073697A65206D75737420626520 PUSH1 0x44 DUP3 ADD MSTORE PUSH3 0x3E203 PUSH1 0xEC SHL PUSH1 0x64 DUP3 ADD MSTORE PUSH1 0x84 ADD PUSH2 0x1A6 JUMP JUMPDEST PUSH1 0x0 PUSH2 0x526 DUP8 PUSH2 0xC02 JUMP JUMPDEST PUSH1 0x0 DUP2 DUP2 MSTORE PUSH1 0x1 PUSH1 0x20 MSTORE PUSH1 0x40 SWAP1 KECCAK256 DUP1 SLOAD SWAP2 SWAP3 POP SWAP1 PUSH2 0x543 SWAP1 PUSH2 0x136A JUMP JUMPDEST ISZERO SWAP1 POP PUSH2 0x5AF JUMPI PUSH1 0x40 MLOAD PUSH3 0x461BCD PUSH1 0xE5 SHL DUP2 MSTORE PUSH1 0x20 PUSH1 0x4 DUP3 ADD MSTORE PUSH1 0x34 PUSH1 0x24 DUP3 ADD MSTORE PUSH32 0x46696C6552656769737472793A2066696C652077697468207468697320686173 PUSH1 0x44 DUP3 ADD MSTORE PUSH20 0x1A08185B1C9958591E481C9959DA5CDD195C9959 PUSH1 0x62 SHL PUSH1 0x64 DUP3 ADD MSTORE PUSH1 0x84 ADD PUSH2 0x1A6 JUMP JUMPDEST PUSH2 0x5BA DUP2 CALLER TIMESTAMP PUSH2 0xD14 JUMP JUMPDEST SWAP2 POP PUSH1 0x40 MLOAD DUP1 PUSH2 0x120 ADD PUSH1 0x40 MSTORE DUP1 DUP4 DUP2 MSTORE PUSH1 0x20 ADD DUP3 DUP2 MSTORE PUSH1 0x20 ADD DUP8 DUP2 MSTORE PUSH1 0x20 ADD DUP7 DUP2 MSTORE PUSH1 0x20 ADD DUP6 DUP2 MSTORE PUSH1 0x20 ADD CALLER PUSH1 0x1 PUSH1 0x1 PUSH1 0xA0 SHL SUB AND DUP2 MSTORE PUSH1 0x20 ADD TIMESTAMP DUP2 MSTORE PUSH1 0x20 ADD DUP5 DUP2 MSTORE PUSH1 0x20 ADD PUSH1 0x1 ISZERO ISZERO DUP2 MSTORE POP PUSH1 0x0 DUP4 PUSH1 0x40 MLOAD PUSH2 0x618 SWAP2 SWAP1 PUSH2 0x1306 JUMP JUMPDEST SWAP1 DUP2 MSTORE PUSH1 0x40 MLOAD SWAP1 DUP2 SWAP1 SUB PUSH1 0x20 ADD SWAP1 KECCAK256 DUP2 MLOAD DUP2 SWAP1 PUSH2 0x635 SWAP1 DUP3 PUSH2 0x143C JUMP JUMPDEST POP PUSH1 0x20 DUP3 ADD MLOAD PUSH1 0x1 DUP3 ADD SSTORE PUSH1 0x40 DUP3 ADD MLOAD PUSH1 0x2 DUP3 ADD SWAP1 PUSH2 0x654 SWAP1 DUP3 PUSH2 0x143C JUMP JUMPDEST POP PUSH1 0x60 DUP3 ADD MLOAD PUSH1 0x3 DUP3 ADD SWAP1 PUSH2 0x669 SWAP1 DUP3 PUSH2 0x143C JUMP JUMPDEST POP PUSH1 0x80 DUP3 ADD MLOAD PUSH1 0x4 DUP3 ADD SSTORE PUSH1 0xA0 DUP3 ADD MLOAD PUSH1 0x5 DUP3 ADD DUP1 SLOAD PUSH1 0x1 PUSH1 0x1 PUSH1 0xA0 SHL SUB NOT AND PUSH1 0x1 PUSH1 0x1 PUSH1 0xA0 SHL SUB SWAP1 SWAP3 AND SWAP2 SWAP1 SWAP2 OR SWAP1 SSTORE PUSH1 0xC0 DUP3 ADD MLOAD PUSH1 0x6 DUP3 ADD SSTORE PUSH1 0xE0 DUP3 ADD MLOAD PUSH1 0x7 DUP3 ADD SWAP1 PUSH2 0x6B8 SWAP1 DUP3 PUSH2 0x143C JUMP JUMPDEST POP PUSH2 0x100 SWAP2 SWAP1 SWAP2 ADD MLOAD PUSH1 0x8 SWAP1 SWAP2 ADD DUP1 SLOAD PUSH1 0xFF NOT AND SWAP2 ISZERO ISZERO SWAP2 SWAP1 SWAP2 OR SWAP1 SSTORE PUSH1 0x0 DUP2 DUP2 MSTORE PUSH1 0x1 PUSH1 0x20 MSTORE PUSH1 0x40 SWAP1 KECCAK256 PUSH2 0x6ED DUP4 DUP3 PUSH2 0x143C JUMP JUMPDEST POP CALLER PUSH1 0x0 SWAP1 DUP2 MSTORE PUSH1 0x2 PUSH1 0x20 SWAP1 DUP2 MSTORE PUSH1 0x40 DUP3 KECCAK256 DUP1 SLOAD PUSH1 0x1 DUP2 ADD DUP3 SSTORE SWAP1 DUP4 MSTORE SWAP2 KECCAK256 ADD PUSH2 0x717 DUP4 DUP3 PUSH2 0x143C JUMP JUMPDEST POP PUSH1 0x3 DUP1 SLOAD SWAP1 PUSH1 0x0 PUSH2 0x728 DUP4 PUSH2 0x1512 JUMP JUMPDEST SWAP2 SWAP1 POP SSTORE POP CALLER PUSH1 0x1 PUSH1 0x1 PUSH1 0xA0 SHL SUB AND DUP2 DUP4 PUSH1 0x40 MLOAD PUSH2 0x746 SWAP2 SWAP1 PUSH2 0x1306 JUMP JUMPDEST PUSH1 0x40 MLOAD DUP1 SWAP2 SUB SWAP1 KECCAK256 PUSH32 0xE6C983EB41CEFFCBDD7A5F6C460B3F725DFE7286CA7D739D7D270E99F976E616 DUP10 TIMESTAMP PUSH1 0x40 MLOAD PUSH2 0x77F SWAP3 SWAP2 SWAP1 PUSH2 0x152B JUMP JUMPDEST PUSH1 0x40 MLOAD DUP1 SWAP2 SUB SWAP1 LOG4 POP SWAP6 SWAP5 POP POP POP POP POP JUMP JUMPDEST PUSH1 0x60 DUP2 MLOAD PUSH1 0x40 EQ PUSH2 0x7B4 JUMPI PUSH1 0x40 MLOAD PUSH3 0x461BCD PUSH1 0xE5 SHL DUP2 MSTORE PUSH1 0x4 ADD PUSH2 0x1A6 SWAP1 PUSH2 0x13A4 JUMP JUMPDEST PUSH1 0x0 PUSH2 0x7BF DUP4 PUSH2 0xC02 JUMP JUMPDEST PUSH1 0x0 DUP2 DUP2 MSTORE PUSH1 0x1 PUSH1 0x20 MSTORE PUSH1 0x40 SWAP1 KECCAK256 DUP1 SLOAD SWAP2 SWAP3 POP SWAP1 PUSH2 0x7DC SWAP1 PUSH2 0x136A JUMP JUMPDEST DUP1 PUSH1 0x1F ADD PUSH1 0x20 DUP1 SWAP2 DIV MUL PUSH1 0x20 ADD PUSH1 0x40 MLOAD SWAP1 DUP2 ADD PUSH1 0x40 MSTORE DUP1 SWAP3 SWAP2 SWAP1 DUP2 DUP2 MSTORE PUSH1 0x20 ADD DUP3 DUP1 SLOAD PUSH2 0x808 SWAP1 PUSH2 0x136A JUMP JUMPDEST DUP1 ISZERO PUSH2 0x855 JUMPI DUP1 PUSH1 0x1F LT PUSH2 0x82A JUMPI PUSH2 0x100 DUP1 DUP4 SLOAD DIV MUL DUP4 MSTORE SWAP2 PUSH1 0x20 ADD SWAP2 PUSH2 0x855 JUMP JUMPDEST DUP3 ADD SWAP2 SWAP1 PUSH1 0x0 MSTORE PUSH1 0x20 PUSH1 0x0 KECCAK256 SWAP1 JUMPDEST DUP2 SLOAD DUP2 MSTORE SWAP1 PUSH1 0x1 ADD SWAP1 PUSH1 0x20 ADD DUP1 DUP4 GT PUSH2 0x838 JUMPI DUP3 SWAP1 SUB PUSH1 0x1F AND DUP3 ADD SWAP2 JUMPDEST POP POP POP POP POP SWAP2 POP POP SWAP2 SWAP1 POP JUMP JUMPDEST PUSH1 0x1 PUSH1 0x1 PUSH1 0xA0 SHL SUB DUP2 AND PUSH1 0x0 SWAP1 DUP2 MSTORE PUSH1 0x2 PUSH1 0x20 SWAP1 DUP2 MSTORE PUSH1 0x40 DUP1 DUP4 KECCAK256 DUP1 SLOAD DUP3 MLOAD DUP2 DUP6 MUL DUP2 ADD DUP6 ADD SWAP1 SWAP4 MSTORE DUP1 DUP4 MSTORE PUSH1 0x60 SWAP5 SWAP3 SWAP4 SWAP2 SWAP3 SWAP1 SWAP2 DUP5 ADD JUMPDEST DUP3 DUP3 LT ISZERO PUSH2 0x946 JUMPI DUP4 DUP3 SWAP1 PUSH1 0x0 MSTORE PUSH1 0x20 PUSH1 0x0 KECCAK256 ADD DUP1 SLOAD PUSH2 0x8B9 SWAP1 PUSH2 0x136A JUMP JUMPDEST DUP1 PUSH1 0x1F ADD PUSH1 0x20 DUP1 SWAP2 DIV MUL PUSH1 0x20 ADD PUSH1 0x40 MLOAD SWAP1 DUP2 ADD PUSH1 0x40 MSTORE DUP1 SWAP3 SWAP2 SWAP1 DUP2 DUP2 MSTORE PUSH1 0x20 ADD DUP3 DUP1 SLOAD PUSH2 0x8E5 SWAP1 PUSH2 0x136A JUMP JUMPDEST DUP1 ISZERO PUSH2 0x932 JUMPI DUP1 PUSH1 0x1F LT PUSH2 0x907 JUMPI PUSH2 0x100 DUP1 DUP4 SLOAD DIV MUL DUP4 MSTORE SWAP2 PUSH1 0x20 ADD SWAP2 PUSH2 0x932 JUMP JUMPDEST DUP3 ADD SWAP2 SWAP1 PUSH1 0x0 MSTORE PUSH1 0x20 PUSH1 0x0 KECCAK256 SWAP1 JUMPDEST DUP2 SLOAD DUP2 MSTORE SWAP1 PUSH1 0x1 ADD SWAP1 PUSH1 0x20 ADD DUP1 DUP4 GT PUSH2 0x915 JUMPI DUP3 SWAP1 SUB PUSH1 0x1F AND DUP3 ADD SWAP2 JUMPDEST POP POP POP POP POP DUP2 MSTORE PUSH1 0x20 ADD SWAP1 PUSH1 0x1 ADD SWAP1 PUSH2 0x89A JUMP JUMPDEST POP POP POP POP SWAP1 POP SWAP2 SWAP1 POP JUMP JUMPDEST DUP1 PUSH1 0x0 DUP2 PUSH1 0x40 MLOAD PUSH2 0x962 SWAP2 SWAP1 PUSH2 0x1306 JUMP JUMPDEST SWAP1 DUP2 MSTORE PUSH1 0x40 MLOAD SWAP1 DUP2 SWAP1 SUB PUSH1 0x20 ADD SWAP1 KECCAK256 PUSH1 0x8 ADD SLOAD PUSH1 0xFF AND PUSH2 0x994 JUMPI PUSH1 0x40 MLOAD PUSH3 0x461BCD PUSH1 0xE5 SHL DUP2 MSTORE PUSH1 0x4 ADD PUSH2 0x1A6 SWAP1 PUSH2 0x1322 JUMP JUMPDEST PUSH1 0x0 DUP3 PUSH1 0x40 MLOAD PUSH2 0x9A4 SWAP2 SWAP1 PUSH2 0x1306 JUMP JUMPDEST SWAP1 DUP2 MSTORE PUSH1 0x40 MLOAD SWAP1 DUP2 SWAP1 SUB PUSH1 0x20 ADD SWAP1 KECCAK256 PUSH1 0x5 ADD SLOAD CALLER PUSH1 0x1 PUSH1 0x1 PUSH1 0xA0 SHL SUB SWAP1 SWAP2 AND EQ DUP1 PUSH2 0x9D9 JUMPI POP PUSH1 0x4 SLOAD PUSH1 0x1 PUSH1 0x1 PUSH1 0xA0 SHL SUB AND CALLER EQ JUMPDEST PUSH2 0xA25 JUMPI PUSH1 0x40 MLOAD PUSH3 0x461BCD PUSH1 0xE5 SHL DUP2 MSTORE PUSH1 0x20 PUSH1 0x4 DUP3 ADD MSTORE PUSH1 0x1C PUSH1 0x24 DUP3 ADD MSTORE PUSH32 0x46696C6552656769737472793A206E6F7420617574686F72697A656400000000 PUSH1 0x44 DUP3 ADD MSTORE PUSH1 0x64 ADD PUSH2 0x1A6 JUMP JUMPDEST PUSH1 0x0 DUP1 DUP4 PUSH1 0x40 MLOAD PUSH2 0xA36 SWAP2 SWAP1 PUSH2 0x1306 JUMP JUMPDEST SWAP1 DUP2 MSTORE PUSH1 0x40 MLOAD SWAP1 DUP2 SWAP1 SUB PUSH1 0x20 ADD DUP2 KECCAK256 PUSH1 0x8 ADD DUP1 SLOAD SWAP3 ISZERO ISZERO PUSH1 0xFF NOT SWAP1 SWAP4 AND SWAP3 SWAP1 SWAP3 OR SWAP1 SWAP2 SSTORE PUSH2 0xA65 SWAP1 DUP4 SWAP1 PUSH2 0x1306 JUMP JUMPDEST PUSH1 0x40 DUP1 MLOAD SWAP2 DUP3 SWAP1 SUB DUP3 KECCAK256 CALLER DUP4 MSTORE TIMESTAMP PUSH1 0x20 DUP5 ADD MSTORE SWAP2 PUSH32 0xA200475B69E9608CFE8E486FE4A126C3CD199EE55FB43A44E289DBA365617FB3 SWAP2 ADD PUSH1 0x40 MLOAD DUP1 SWAP2 SUB SWAP1 LOG2 POP POP JUMP JUMPDEST PUSH1 0x40 DUP1 MLOAD DUP1 DUP3 ADD DUP3 MSTORE PUSH1 0x10 DUP2 MSTORE PUSH16 0x181899199A1A9B1B9C1CB0B131B232B3 PUSH1 0x81 SHL PUSH1 0x20 DUP3 ADD MSTORE DUP2 MLOAD DUP3 DUP2 MSTORE PUSH1 0x60 DUP2 DUP2 ADD DUP5 MSTORE SWAP3 PUSH1 0x0 SWAP2 SWAP1 PUSH1 0x20 DUP3 ADD DUP2 DUP1 CALLDATASIZE DUP4 CALLDATACOPY ADD SWAP1 POP POP SWAP1 POP PUSH1 0x0 JUMPDEST PUSH1 0x20 DUP2 LT ISZERO PUSH2 0xBFA JUMPI DUP3 PUSH1 0x4 DUP7 DUP4 PUSH1 0x20 DUP2 LT PUSH2 0xB0F JUMPI PUSH2 0xB0F PUSH2 0x154D JUMP JUMPDEST DUP4 MLOAD SWAP2 SWAP1 BYTE SWAP1 SWAP2 SHR PUSH1 0xFF AND SWAP1 DUP2 LT PUSH2 0xB29 JUMPI PUSH2 0xB29 PUSH2 0x154D JUMP JUMPDEST ADD PUSH1 0x20 ADD MLOAD PUSH1 0x1 PUSH1 0x1 PUSH1 0xF8 SHL SUB NOT AND DUP3 PUSH2 0xB44 DUP4 PUSH1 0x2 PUSH2 0x1563 JUMP JUMPDEST DUP2 MLOAD DUP2 LT PUSH2 0xB54 JUMPI PUSH2 0xB54 PUSH2 0x154D JUMP JUMPDEST PUSH1 0x20 ADD ADD SWAP1 PUSH1 0x1 PUSH1 0x1 PUSH1 0xF8 SHL SUB NOT AND SWAP1 DUP2 PUSH1 0x0 BYTE SWAP1 MSTORE8 POP DUP3 DUP6 DUP3 PUSH1 0x20 DUP2 LT PUSH2 0xB7E JUMPI PUSH2 0xB7E PUSH2 0x154D JUMP JUMPDEST BYTE PUSH1 0xF8 SHL PUSH1 0xF8 SHR PUSH1 0xF AND PUSH1 0xFF AND DUP2 MLOAD DUP2 LT PUSH2 0xB9B JUMPI PUSH2 0xB9B PUSH2 0x154D JUMP JUMPDEST ADD PUSH1 0x20 ADD MLOAD PUSH1 0x1 PUSH1 0x1 PUSH1 0xF8 SHL SUB NOT AND DUP3 PUSH2 0xBB6 DUP4 PUSH1 0x2 PUSH2 0x1563 JUMP JUMPDEST PUSH2 0xBC1 SWAP1 PUSH1 0x1 PUSH2 0x157A JUMP JUMPDEST DUP2 MLOAD DUP2 LT PUSH2 0xBD1 JUMPI PUSH2 0xBD1 PUSH2 0x154D JUMP JUMPDEST PUSH1 0x20 ADD ADD SWAP1 PUSH1 0x1 PUSH1 0x1 PUSH1 0xF8 SHL SUB NOT AND SWAP1 DUP2 PUSH1 0x0 BYTE SWAP1 MSTORE8 POP DUP1 PUSH2 0xBF2 DUP2 PUSH2 0x1512 JUMP JUMPDEST SWAP2 POP POP PUSH2 0xAF1 JUMP JUMPDEST POP SWAP4 SWAP3 POP POP POP JUMP JUMPDEST DUP1 MLOAD PUSH1 0x0 SWAP1 DUP3 SWAP1 PUSH1 0x40 EQ PUSH2 0xC6A JUMPI PUSH1 0x40 MLOAD PUSH3 0x461BCD PUSH1 0xE5 SHL DUP2 MSTORE PUSH1 0x20 PUSH1 0x4 DUP3 ADD MSTORE PUSH1 0x29 PUSH1 0x24 DUP3 ADD MSTORE PUSH32 0x46696C6552656769737472793A2068657820737472696E67206D757374206265 PUSH1 0x44 DUP3 ADD MSTORE PUSH9 0x203634206368617273 PUSH1 0xB8 SHL PUSH1 0x64 DUP3 ADD MSTORE PUSH1 0x84 ADD PUSH2 0x1A6 JUMP JUMPDEST PUSH1 0x0 JUMPDEST PUSH1 0x20 DUP2 LT ISZERO PUSH2 0xD0D JUMPI PUSH1 0x0 PUSH2 0xCAB DUP4 PUSH2 0xC87 DUP5 PUSH1 0x2 PUSH2 0x1563 JUMP JUMPDEST DUP2 MLOAD DUP2 LT PUSH2 0xC97 JUMPI PUSH2 0xC97 PUSH2 0x154D JUMP JUMPDEST ADD PUSH1 0x20 ADD MLOAD PUSH1 0x1 PUSH1 0x1 PUSH1 0xF8 SHL SUB NOT AND PUSH2 0xEC0 JUMP JUMPDEST SWAP1 POP PUSH1 0x0 PUSH2 0xCC9 DUP5 PUSH2 0xCBE DUP6 PUSH1 0x2 PUSH2 0x1563 JUMP JUMPDEST PUSH2 0xC87 SWAP1 PUSH1 0x1 PUSH2 0x157A JUMP JUMPDEST SWAP1 POP PUSH2 0xFF0 PUSH1 0x4 DUP4 SWAP1 SHL AND DUP2 OR PUSH2 0xCE1 DUP5 PUSH1 0x1F PUSH2 0x158D JUMP JUMPDEST PUSH2 0xCEC SWAP1 PUSH1 0x8 PUSH2 0x1563 JUMP JUMPDEST PUSH1 0xFF SWAP1 SWAP2 AND SWAP1 SHL SWAP5 SWAP1 SWAP5 OR SWAP4 POP DUP2 SWAP1 POP PUSH2 0xD05 DUP2 PUSH2 0x1512 JUMP JUMPDEST SWAP2 POP POP PUSH2 0xC6D JUMP JUMPDEST POP POP SWAP2 SWAP1 POP JUMP JUMPDEST PUSH1 0x60 PUSH1 0x0 DUP5 DUP5 DUP5 PUSH1 0x40 MLOAD PUSH1 0x20 ADD PUSH2 0xD50 SWAP4 SWAP3 SWAP2 SWAP1 SWAP3 DUP4 MSTORE PUSH1 0x60 SWAP2 SWAP1 SWAP2 SHL PUSH12 0xFFFFFFFFFFFFFFFFFFFFFFFF NOT AND PUSH1 0x20 DUP4 ADD MSTORE PUSH1 0x34 DUP3 ADD MSTORE PUSH1 0x54 ADD SWAP1 JUMP JUMPDEST PUSH1 0x40 DUP1 MLOAD PUSH1 0x1F NOT DUP2 DUP5 SUB ADD DUP2 MSTORE DUP3 DUP3 MSTORE DUP1 MLOAD PUSH1 0x20 SWAP2 DUP3 ADD KECCAK256 DUP4 DUP4 ADD DUP4 MSTORE PUSH1 0x10 DUP1 DUP6 MSTORE PUSH16 0x181899199A1A9B1B9C1CA0A121A222A3 PUSH1 0x81 SHL DUP4 DUP7 ADD MSTORE DUP4 MLOAD DUP2 DUP2 MSTORE DUP1 DUP6 ADD SWAP1 SWAP5 MSTORE SWAP1 SWAP5 POP PUSH1 0x0 SWAP3 SWAP2 DUP3 ADD DUP2 DUP1 CALLDATASIZE DUP4 CALLDATACOPY ADD SWAP1 POP POP SWAP1 POP PUSH1 0x0 JUMPDEST PUSH1 0x8 DUP2 LT ISZERO PUSH2 0xEB5 JUMPI DUP3 PUSH1 0x4 DUP6 DUP4 PUSH1 0x20 DUP2 LT PUSH2 0xDCA JUMPI PUSH2 0xDCA PUSH2 0x154D JUMP JUMPDEST DUP4 MLOAD SWAP2 SWAP1 BYTE SWAP1 SWAP2 SHR PUSH1 0xFF AND SWAP1 DUP2 LT PUSH2 0xDE4 JUMPI PUSH2 0xDE4 PUSH2 0x154D JUMP JUMPDEST ADD PUSH1 0x20 ADD MLOAD PUSH1 0x1 PUSH1 0x1 PUSH1 0xF8 SHL SUB NOT AND DUP3 PUSH2 0xDFF DUP4 PUSH1 0x2 PUSH2 0x1563 JUMP JUMPDEST DUP2 MLOAD DUP2 LT PUSH2 0xE0F JUMPI PUSH2 0xE0F PUSH2 0x154D JUMP JUMPDEST PUSH1 0x20 ADD ADD SWAP1 PUSH1 0x1 PUSH1 0x1 PUSH1 0xF8 SHL SUB NOT AND SWAP1 DUP2 PUSH1 0x0 BYTE SWAP1 MSTORE8 POP DUP3 DUP5 DUP3 PUSH1 0x20 DUP2 LT PUSH2 0xE39 JUMPI PUSH2 0xE39 PUSH2 0x154D JUMP JUMPDEST BYTE PUSH1 0xF8 SHL PUSH1 0xF8 SHR PUSH1 0xF AND PUSH1 0xFF AND DUP2 MLOAD DUP2 LT PUSH2 0xE56 JUMPI PUSH2 0xE56 PUSH2 0x154D JUMP JUMPDEST ADD PUSH1 0x20 ADD MLOAD PUSH1 0x1 PUSH1 0x1 PUSH1 0xF8 SHL SUB NOT AND DUP3 PUSH2 0xE71 DUP4 PUSH1 0x2 PUSH2 0x1563 JUMP JUMPDEST PUSH2 0xE7C SWAP1 PUSH1 0x1 PUSH2 0x157A JUMP JUMPDEST DUP2 MLOAD DUP2 LT PUSH2 0xE8C JUMPI PUSH2 0xE8C PUSH2 0x154D JUMP JUMPDEST PUSH1 0x20 ADD ADD SWAP1 PUSH1 0x1 PUSH1 0x1 PUSH1 0xF8 SHL SUB NOT AND SWAP1 DUP2 PUSH1 0x0 BYTE SWAP1 MSTORE8 POP DUP1 PUSH2 0xEAD DUP2 PUSH2 0x1512 JUMP JUMPDEST SWAP2 POP POP PUSH2 0xDAC JUMP JUMPDEST POP SWAP7 SWAP6 POP POP POP POP POP POP JUMP JUMPDEST PUSH1 0x0 PUSH1 0x3 PUSH1 0xFC SHL PUSH1 0x1 PUSH1 0x1 PUSH1 0xF8 SHL SUB NOT DUP4 AND LT DUP1 ISZERO SWAP1 PUSH2 0xEEE JUMPI POP PUSH1 0x39 PUSH1 0xF8 SHL PUSH1 0x1 PUSH1 0x1 PUSH1 0xF8 SHL SUB NOT DUP4 AND GT ISZERO JUMPDEST ISZERO PUSH2 0xF08 JUMPI PUSH2 0xF02 PUSH1 0x30 PUSH1 0xF8 DUP5 SWAP1 SHR PUSH2 0x15A0 JUMP JUMPDEST SWAP3 SWAP2 POP POP JUMP JUMPDEST PUSH1 0x61 PUSH1 0xF8 SHL PUSH1 0x1 PUSH1 0x1 PUSH1 0xF8 SHL SUB NOT DUP4 AND LT DUP1 ISZERO SWAP1 PUSH2 0xF34 JUMPI POP PUSH1 0x33 PUSH1 0xF9 SHL PUSH1 0x1 PUSH1 0x1 PUSH1 0xF8 SHL SUB NOT DUP4 AND GT ISZERO JUMPDEST ISZERO PUSH2 0xF54 JUMPI PUSH1 0x61 PUSH2 0xF4A PUSH1 0xF8 DUP5 SWAP1 SHR PUSH1 0xA PUSH2 0x15B9 JUMP JUMPDEST PUSH2 0xF02 SWAP2 SWAP1 PUSH2 0x15A0 JUMP JUMPDEST PUSH1 0x41 PUSH1 0xF8 SHL PUSH1 0x1 PUSH1 0x1 PUSH1 0xF8 SHL SUB NOT DUP4 AND LT DUP1 ISZERO SWAP1 PUSH2 0xF80 JUMPI POP PUSH1 0x23 PUSH1 0xF9 SHL PUSH1 0x1 PUSH1 0x1 PUSH1 0xF8 SHL SUB NOT DUP4 AND GT ISZERO JUMPDEST ISZERO PUSH2 0xF96 JUMPI PUSH1 0x41 PUSH2 0xF4A PUSH1 0xF8 DUP5 SWAP1 SHR PUSH1 0xA PUSH2 0x15B9 JUMP JUMPDEST PUSH1 0x40 MLOAD PUSH3 0x461BCD PUSH1 0xE5 SHL DUP2 MSTORE PUSH1 0x20 PUSH1 0x4 DUP3 ADD MSTORE PUSH1 0x23 PUSH1 0x24 DUP3 ADD MSTORE PUSH32 0x46696C6552656769737472793A20696E76616C69642068657820636861726163 PUSH1 0x44 DUP3 ADD MSTORE PUSH3 0x3A32B9 PUSH1 0xE9 SHL PUSH1 0x64 DUP3 ADD MSTORE PUSH1 0x84 ADD PUSH2 0x1A6 JUMP JUMPDEST PUSH4 0x4E487B71 PUSH1 0xE0 SHL PUSH1 0x0 MSTORE PUSH1 0x41 PUSH1 0x4 MSTORE PUSH1 0x24 PUSH1 0x0 REVERT JUMPDEST PUSH1 0x0 DUP3 PUSH1 0x1F DUP4 ADD SLT PUSH2 0x1011 JUMPI PUSH1 0x0 DUP1 REVERT JUMPDEST DUP2 CALLDATALOAD PUSH8 0xFFFFFFFFFFFFFFFF DUP1 DUP3 GT ISZERO PUSH2 0x102C JUMPI PUSH2 0x102C PUSH2 0xFEA JUMP JUMPDEST PUSH1 0x40 MLOAD PUSH1 0x1F DUP4 ADD PUSH1 0x1F NOT SWAP1 DUP2 AND PUSH1 0x3F ADD AND DUP2 ADD SWAP1 DUP3 DUP3 GT DUP2 DUP4 LT OR ISZERO PUSH2 0x1054 JUMPI PUSH2 0x1054 PUSH2 0xFEA JUMP JUMPDEST DUP2 PUSH1 0x40 MSTORE DUP4 DUP2 MSTORE DUP7 PUSH1 0x20 DUP6 DUP9 ADD ADD GT ISZERO PUSH2 0x106D JUMPI PUSH1 0x0 DUP1 REVERT JUMPDEST DUP4 PUSH1 0x20 DUP8 ADD PUSH1 0x20 DUP4 ADD CALLDATACOPY PUSH1 0x0 PUSH1 0x20 DUP6 DUP4 ADD ADD MSTORE DUP1 SWAP5 POP POP POP POP POP SWAP3 SWAP2 POP POP JUMP JUMPDEST PUSH1 0x0 PUSH1 0x20 DUP3 DUP5 SUB SLT ISZERO PUSH2 0x109F JUMPI PUSH1 0x0 DUP1 REVERT JUMPDEST DUP2 CALLDATALOAD PUSH8 0xFFFFFFFFFFFFFFFF DUP2 GT ISZERO PUSH2 0x10B6 JUMPI PUSH1 0x0 DUP1 REVERT JUMPDEST PUSH2 0x10C2 DUP5 DUP3 DUP6 ADD PUSH2 0x1000 JUMP JUMPDEST SWAP5 SWAP4 POP POP POP POP JUMP JUMPDEST PUSH1 0x0 JUMPDEST DUP4 DUP2 LT ISZERO PUSH2 0x10E5 JUMPI DUP2 DUP2 ADD MLOAD DUP4 DUP3 ADD MSTORE PUSH1 0x20 ADD PUSH2 0x10CD JUMP JUMPDEST POP POP PUSH1 0x0 SWAP2 ADD MSTORE JUMP JUMPDEST PUSH1 0x0 DUP2 MLOAD DUP1 DUP5 MSTORE PUSH2 0x1106 DUP2 PUSH1 0x20 DUP7 ADD PUSH1 0x20 DUP7 ADD PUSH2 0x10CA JUMP JUMPDEST PUSH1 0x1F ADD PUSH1 0x1F NOT AND SWAP3 SWAP1 SWAP3 ADD PUSH1 0x20 ADD SWAP3 SWAP2 POP POP JUMP JUMPDEST PUSH1 0x0 PUSH2 0x100 DUP1 DUP4 MSTORE PUSH2 0x112E DUP2 DUP5 ADD DUP13 PUSH2 0x10EE JUMP JUMPDEST SWAP1 POP DUP3 DUP2 SUB PUSH1 0x20 DUP5 ADD MSTORE PUSH2 0x1142 DUP2 DUP12 PUSH2 0x10EE JUMP JUMPDEST SWAP1 POP DUP3 DUP2 SUB PUSH1 0x40 DUP5 ADD MSTORE PUSH2 0x1156 DUP2 DUP11 PUSH2 0x10EE JUMP JUMPDEST SWAP1 POP DUP3 DUP2 SUB PUSH1 0x60 DUP5 ADD MSTORE PUSH2 0x116A DUP2 DUP10 PUSH2 0x10EE JUMP JUMPDEST PUSH1 0x80 DUP5 ADD DUP9 SWAP1 MSTORE PUSH1 0x1 PUSH1 0x1 PUSH1 0xA0 SHL SUB DUP8 AND PUSH1 0xA0 DUP6 ADD MSTORE PUSH1 0xC0 DUP5 ADD DUP7 SWAP1 MSTORE DUP4 DUP2 SUB PUSH1 0xE0 DUP6 ADD MSTORE SWAP1 POP PUSH2 0x119B DUP2 DUP6 PUSH2 0x10EE JUMP JUMPDEST SWAP12 SWAP11 POP POP POP POP POP POP POP POP POP POP POP JUMP JUMPDEST PUSH1 0x0 DUP1 PUSH1 0x0 DUP1 PUSH1 0x0 PUSH1 0xA0 DUP7 DUP9 SUB SLT ISZERO PUSH2 0x11C2 JUMPI PUSH1 0x0 DUP1 REVERT JUMPDEST DUP6 CALLDATALOAD PUSH8 0xFFFFFFFFFFFFFFFF DUP1 DUP3 GT ISZERO PUSH2 0x11DA JUMPI PUSH1 0x0 DUP1 REVERT JUMPDEST PUSH2 0x11E6 DUP10 DUP4 DUP11 ADD PUSH2 0x1000 JUMP JUMPDEST SWAP7 POP PUSH1 0x20 DUP9 ADD CALLDATALOAD SWAP2 POP DUP1 DUP3 GT ISZERO PUSH2 0x11FC JUMPI PUSH1 0x0 DUP1 REVERT JUMPDEST PUSH2 0x1208 DUP10 DUP4 DUP11 ADD PUSH2 0x1000 JUMP JUMPDEST SWAP6 POP PUSH1 0x40 DUP9 ADD CALLDATALOAD SWAP2 POP DUP1 DUP3 GT ISZERO PUSH2 0x121E JUMPI PUSH1 0x0 DUP1 REVERT JUMPDEST PUSH2 0x122A DUP10 DUP4 DUP11 ADD PUSH2 0x1000 JUMP JUMPDEST SWAP5 POP PUSH1 0x60 DUP9 ADD CALLDATALOAD SWAP4 POP PUSH1 0x80 DUP9 ADD CALLDATALOAD SWAP2 POP DUP1 DUP3 GT ISZERO PUSH2 0x1247 JUMPI PUSH1 0x0 DUP1 REVERT JUMPDEST POP PUSH2 0x1254 DUP9 DUP3 DUP10 ADD PUSH2 0x1000 JUMP JUMPDEST SWAP2 POP POP SWAP3 SWAP6 POP SWAP3 SWAP6 SWAP1 SWAP4 POP JUMP JUMPDEST PUSH1 0x20 DUP2 MSTORE PUSH1 0x0 PUSH2 0x1274 PUSH1 0x20 DUP4 ADD DUP5 PUSH2 0x10EE JUMP JUMPDEST SWAP4 SWAP3 POP POP POP JUMP JUMPDEST PUSH1 0x0 PUSH1 0x20 DUP3 DUP5 SUB SLT ISZERO PUSH2 0x128D JUMPI PUSH1 0x0 DUP1 REVERT JUMPDEST DUP2 CALLDATALOAD PUSH1 0x1 PUSH1 0x1 PUSH1 0xA0 SHL SUB DUP2 AND DUP2 EQ PUSH2 0x1274 JUMPI PUSH1 0x0 DUP1 REVERT JUMPDEST PUSH1 0x0 PUSH1 0x20 DUP1 DUP4 ADD DUP2 DUP5 MSTORE DUP1 DUP6 MLOAD DUP1 DUP4 MSTORE PUSH1 0x40 DUP7 ADD SWAP2 POP PUSH1 0x40 DUP2 PUSH1 0x5 SHL DUP8 ADD ADD SWAP3 POP DUP4 DUP8 ADD PUSH1 0x0 JUMPDEST DUP3 DUP2 LT ISZERO PUSH2 0x12F9 JUMPI PUSH1 0x3F NOT DUP9 DUP7 SUB ADD DUP5 MSTORE PUSH2 0x12E7 DUP6 DUP4 MLOAD PUSH2 0x10EE JUMP JUMPDEST SWAP5 POP SWAP3 DUP6 ADD SWAP3 SWAP1 DUP6 ADD SWAP1 PUSH1 0x1 ADD PUSH2 0x12CB JUMP JUMPDEST POP SWAP3 SWAP8 SWAP7 POP POP POP POP POP POP POP JUMP JUMPDEST PUSH1 0x0 DUP3 MLOAD PUSH2 0x1318 DUP2 DUP5 PUSH1 0x20 DUP8 ADD PUSH2 0x10CA JUMP JUMPDEST SWAP2 SWAP1 SWAP2 ADD SWAP3 SWAP2 POP POP JUMP JUMPDEST PUSH1 0x20 DUP1 DUP3 MSTORE PUSH1 0x28 SWAP1 DUP3 ADD MSTORE PUSH32 0x46696C6552656769737472793A2066696C65206E6F7420666F756E64206F7220 PUSH1 0x40 DUP3 ADD MSTORE PUSH8 0x696E616374697665 PUSH1 0xC0 SHL PUSH1 0x60 DUP3 ADD MSTORE PUSH1 0x80 ADD SWAP1 JUMP JUMPDEST PUSH1 0x1 DUP2 DUP2 SHR SWAP1 DUP3 AND DUP1 PUSH2 0x137E JUMPI PUSH1 0x7F DUP3 AND SWAP2 POP JUMPDEST PUSH1 0x20 DUP3 LT DUP2 SUB PUSH2 0x139E JUMPI PUSH4 0x4E487B71 PUSH1 0xE0 SHL PUSH1 0x0 MSTORE PUSH1 0x22 PUSH1 0x4 MSTORE PUSH1 0x24 PUSH1 0x0 REVERT JUMPDEST POP SWAP2 SWAP1 POP JUMP JUMPDEST PUSH1 0x20 DUP1 DUP3 MSTORE PUSH1 0x29 SWAP1 DUP3 ADD MSTORE PUSH32 0x46696C6552656769737472793A20696E76616C6964205348412D323536206861 PUSH1 0x40 DUP3 ADD MSTORE PUSH9 0xE6D040D8CADCCEE8D PUSH1 0xBB SHL PUSH1 0x60 DUP3 ADD MSTORE PUSH1 0x80 ADD SWAP1 JUMP JUMPDEST PUSH1 0x1F DUP3 GT ISZERO PUSH2 0x1437 JUMPI PUSH1 0x0 DUP2 DUP2 MSTORE PUSH1 0x20 DUP2 KECCAK256 PUSH1 0x1F DUP6 ADD PUSH1 0x5 SHR DUP2 ADD PUSH1 0x20 DUP7 LT ISZERO PUSH2 0x1414 JUMPI POP DUP1 JUMPDEST PUSH1 0x1F DUP6 ADD PUSH1 0x5 SHR DUP3 ADD SWAP2 POP JUMPDEST DUP2 DUP2 LT ISZERO PUSH2 0x1433 JUMPI DUP3 DUP2 SSTORE PUSH1 0x1 ADD PUSH2 0x1420 JUMP JUMPDEST POP POP POP JUMPDEST POP POP POP JUMP JUMPDEST DUP2 MLOAD PUSH8 0xFFFFFFFFFFFFFFFF DUP2 GT ISZERO PUSH2 0x1456 JUMPI PUSH2 0x1456 PUSH2 0xFEA JUMP JUMPDEST PUSH2 0x146A DUP2 PUSH2 0x1464 DUP5 SLOAD PUSH2 0x136A JUMP JUMPDEST DUP5 PUSH2 0x13ED JUMP JUMPDEST PUSH1 0x20 DUP1 PUSH1 0x1F DUP4 GT PUSH1 0x1 DUP2 EQ PUSH2 0x149F JUMPI PUSH1 0x0 DUP5 ISZERO PUSH2 0x1487 JUMPI POP DUP6 DUP4 ADD MLOAD JUMPDEST PUSH1 0x0 NOT PUSH1 0x3 DUP7 SWAP1 SHL SHR NOT AND PUSH1 0x1 DUP6 SWAP1 SHL OR DUP6 SSTORE PUSH2 0x1433 JUMP JUMPDEST PUSH1 0x0 DUP6 DUP2 MSTORE PUSH1 0x20 DUP2 KECCAK256 PUSH1 0x1F NOT DUP7 AND SWAP2 JUMPDEST DUP3 DUP2 LT ISZERO PUSH2 0x14CE JUMPI DUP9 DUP7 ADD MLOAD DUP3 SSTORE SWAP5 DUP5 ADD SWAP5 PUSH1 0x1 SWAP1 SWAP2 ADD SWAP1 DUP5 ADD PUSH2 0x14AF JUMP JUMPDEST POP DUP6 DUP3 LT ISZERO PUSH2 0x14EC JUMPI DUP8 DUP6 ADD MLOAD PUSH1 0x0 NOT PUSH1 0x3 DUP9 SWAP1 SHL PUSH1 0xF8 AND SHR NOT AND DUP2 SSTORE JUMPDEST POP POP POP POP POP PUSH1 0x1 SWAP1 DUP2 SHL ADD SWAP1 SSTORE POP JUMP JUMPDEST PUSH4 0x4E487B71 PUSH1 0xE0 SHL PUSH1 0x0 MSTORE PUSH1 0x11 PUSH1 0x4 MSTORE PUSH1 0x24 PUSH1 0x0 REVERT JUMPDEST PUSH1 0x0 PUSH1 0x1 DUP3 ADD PUSH2 0x1524 JUMPI PUSH2 0x1524 PUSH2 0x14FC JUMP JUMPDEST POP PUSH1 0x1 ADD SWAP1 JUMP JUMPDEST PUSH1 0x40 DUP2 MSTORE PUSH1 0x0 PUSH2 0x153E PUSH1 0x40 DUP4 ADD DUP6 PUSH2 0x10EE JUMP JUMPDEST SWAP1 POP DUP3 PUSH1 0x20 DUP4 ADD MSTORE SWAP4 SWAP3 POP POP POP JUMP JUMPDEST PUSH4 0x4E487B71 PUSH1 0xE0 SHL PUSH1 0x0 MSTORE PUSH1 0x32 PUSH1 0x4 MSTORE PUSH1 0x24 PUSH1 0x0 REVERT JUMPDEST DUP1 DUP3 MUL DUP2 ISZERO DUP3 DUP3 DIV DUP5 EQ OR PUSH2 0xF02 JUMPI PUSH2 0xF02 PUSH2 0x14FC JUMP JUMPDEST DUP1 DUP3 ADD DUP1 DUP3 GT ISZERO PUSH2 0xF02 JUMPI PUSH2 0xF02 PUSH2 0x14FC JUMP JUMPDEST DUP2 DUP2 SUB DUP2 DUP2 GT ISZERO PUSH2 0xF02 JUMPI PUSH2 0xF02 PUSH2 0x14FC JUMP JUMPDEST PUSH1 0xFF DUP3 DUP2 AND DUP3 DUP3 AND SUB SWAP1 DUP2 GT ISZERO PUSH2 0xF02 JUMPI PUSH2 0xF02 PUSH2 0x14FC JUMP JUMPDEST PUSH1 0xFF DUP2 DUP2 AND DUP4 DUP3 AND ADD SWAP1 DUP2 GT ISZERO PUSH2 0xF02 JUMPI PUSH2 0xF02 PUSH2 0x14FC JUMP INVALID LOG2 PUSH5 0x6970667358 0x22 SLT KECCAK256 DUP13 SELFDESTRUCT 0xAD 0xD8 DUP14 MLOAD CHAINID 0xA6 0xBE 0xE5 0x4C DUP10 0x4C 0x1F PUSH8 0x68399A3F1C3A630F NOT 0xA5 0xB4 SIGNEXTEND SWAP3 RETURNDATASIZE BASEFEE SLOAD 0xDD PUSH5 0x736F6C6343 STOP ADDMOD EQ STOP CALLER "},"methodIdentifiers":{"deactivateFile(string)":"74546fdf","findFileByHash(string)":"2c10cb96","getFileInfo(string)":"0cc9c17b","getFilesByUploader(address)":"6c338886","getTotalFiles()":"766e0d33","owner()":"8da5cb5b","registerFile(string,string,string,uint256,string)":"0f52b80f"}}}}}