{
  "_format": "hh-sol-artifact-1",
  "contractName": "FileRegistry",
  "sourceName": "contracts/FileRegistry.sol",
  "abi": [
    {
      "inputs": [],
      "stateMutability": "nonpayable",
      "type": "constructor"
    },
    {
      "anonymous": false,
      "inputs": [
        {
          "indexed": true,
          "internalType": "string",
          "name": "fileId",
          "type": "string"
        },
        {
          "indexed": false,
          "internalType": "address",
          "name": "deactivator",
          "type": "address"
        },
        {
          "indexed": false,
          "internalType": "uint256",
          "name": "timestamp",
          "type": "uint256"
        }
      ],
      "name": "FileDeactivated",
      "type": "event"
    },
    {
      "anonymous": false,
      "inputs": [
        {
          "indexed": true,
          "internalType": "string",
          "name": "fileId",
          "type": "string"
        },
        {
          "indexed": true,
          "internalType": "bytes32",
          "name": "sha256Hash",
          "type": "bytes32"
        },
        {
          "indexed": false,
          "internalType": "string",
          "name": "fileName",
          "type": "string"
        },
        {
          "indexed": true,
          "internalType": "address",
          "name": "uploader",
          "type": "address"
        },
        {
          "indexed": false,
          "internalType": "uint256",
          "name": "timestamp",
          "type": "uint256"
        }
      ],
      "name": "FileRegistered",
      "type": "event"
    },
    {
      "inputs": [
        {
          "internalType": "string",
          "name": "fileId",
          "type": "string"
        }
      ],
      "name": "deactivateFile",
      "outputs": [],
      "stateMutability": "nonpayable",
      "type": "function"
    },
    {
      "inputs": [
        {
          "internalType": "string",
          "name": "sha256HashHex",
          "type": "string"
        }
      ],
      "name": "findFileByHash",
      "outputs": [
        {
          "internalType": "string",
          "name": "fileId",
          "type": "string"
        }
      ],
      "stateMutability": "view",
      "type": "function"
    },
    {
      "inputs": [
        {
          "internalType": "string",
          "name": "fileId",
          "type": "string"
        }
      ],
      "name": "getFileInfo",
      "outputs": [
        {
          "internalType": "string",
          "name": "id",
          "type": "string"
        },
        {
          "internalType": "string",
          "name": "sha256HashHex",
          "type": "string"
        },
        {
          "internalType": "string",
          "name": "fileName",
          "type": "string"
        },
        {
          "internalType": "string",
          "name": "fileType",
          "type": "string"
        },
        {
          "internalType": "uint256",
          "name": "fileSize",
          "type": "uint256"
        },
        {
          "internalType": "address",
          "name": "uploader",
          "type": "address"
        },
        {
          "internalType": "uint256",
          "name": "timestamp",
          "type": "uint256"
        },
        {
          "internalType": "string",
          "name": "description",
          "type": "string"
        }
      ],
      "stateMutability": "view",
      "type": "function"
    },
    {
      "inputs": [
        {
          "internalType": "address",
          "name": "uploader",
          "type": "address"
        }
      ],
      "name": "getFilesByUploader",
      "outputs": [
        {
          "internalType": "string[]",
          "name": "",
          "type": "string[]"
        }
      ],
      "stateMutability": "view",
      "type": "function"
    },
    {
      "inputs": [],
      "name": "getTotalFiles",
      "outputs": [
        {
          "internalType": "uint256",
          "name": "",
          "type": "uint256"
        }
      ],
      "stateMutability": "view",
      "type": "function"
    },
    {
      "inputs": [],
      "name": "owner",
      "outputs": [
        {
          "internalType": "address",
          "name": "",
          "type": "address"
        }
      ],
      "stateMutability": "view",
      "type": "function"
    },
    {
      "inputs": [
        {
          "internalType": "string",
          "name": "sha256HashHex",
          "type": "string"
        },
        {
          "internalType": "string",
          "name": "fileName",
          "type": "string"
        },
        {
          "internalType": "string",
          "name": "fileType",
          "type": "string"
        },
        {
          "internalType": "uint256",
          "name": "fileSize",
          "type": "uint256"
        },
        {
          "internalType": "string",
          "name": "description",
          "type": "string"
        }
      ],
      "name": "registerFile",
      "outputs": [
        {
          "internalType": "string",
          "name": "fileId",
          "type": "string"
        }
      ],
      "stateMutability": "nonpayable",
      "type": "function"
    }
  ],
  "bytecode": "0x608060405234801561001057600080fd5b50600480546001600160a01b031916331790556000600355611608806100376000396000f3fe608060405234801561001057600080fd5b506004361061007d5760003560e01c80636c3388861161005b5780636c338886146100e557806374546fdf14610105578063766e0d331461011a5780638da5cb5b1461012b57600080fd5b80630cc9c17b146100825780630f52b80f146100b25780632c10cb96146100d2575b600080fd5b61009561009036600461108d565b610156565b6040516100a998979695949392919061111a565b60405180910390f35b6100c56100c03660046111aa565b61044b565b6040516100a99190611261565b6100c56100e036600461108d565b610791565b6100f86100f336600461127b565b610862565b6040516100a991906112a4565b61011861011336600461108d565b610951565b005b6003546040519081526020016100a9565b60045461013e906001600160a01b031681565b6040516001600160a01b0390911681526020016100a9565b60608060608060008060006060886000816040516101749190611306565b9081526040519081900360200190206008015460ff166101af5760405162461bcd60e51b81526004016101a690611322565b60405180910390fd5b6000808b6040516101c09190611306565b908152602001604051809103902090508060000180546101df9061136a565b80601f016020809104026020016040519081016040528092919081815260200182805461020b9061136a565b80156102585780601f1061022d57610100808354040283529160200191610258565b820191906000526020600020905b81548152906001019060200180831161023b57829003601f168201915b5050505050995061026c8160010154610aa8565b985080600201805461027d9061136a565b80601f01602080910402602001604051908101604052809291908181526020018280546102a99061136a565b80156102f65780601f106102cb576101008083540402835291602001916102f6565b820191906000526020600020905b8154815290600101906020018083116102d957829003601f168201915b5050505050975080600301805461030c9061136a565b80601f01602080910402602001604051908101604052809291908181526020018280546103389061136a565b80156103855780601f1061035a57610100808354040283529160200191610385565b820191906000526020600020905b81548152906001019060200180831161036857829003601f168201915b50505050600483015460058401546006850154600786018054959c50929a506001600160a01b0390911698509650916103be915061136a565b80601f01602080910402602001604051908101604052809291908181526020018280546103ea9061136a565b80156104375780601f1061040c57610100808354040283529160200191610437565b820191906000526020600020905b81548152906001019060200180831161041a57829003601f168201915b505050505092505050919395975091939597565b6060855160401461046e5760405162461bcd60e51b81526004016101a6906113a4565b60008551116104bf5760405162461bcd60e51b815260206004820181905260248201527f46696c6552656769737472793a2066696c65206e616d6520726571756972656460448201526064016101a6565b6000831161051b5760405162461bcd60e51b815260206004820152602360248201527f46696c6552656769737472793a2066696c652073697a65206d7573742062652060448201526203e20360ec1b60648201526084016101a6565b600061052687610c02565b60008181526001602052604090208054919250906105439061136a565b1590506105af5760405162461bcd60e51b815260206004820152603460248201527f46696c6552656769737472793a2066696c6520776974682074686973206861736044820152731a08185b1c9958591e481c9959da5cdd195c995960621b60648201526084016101a6565b6105ba813342610d14565b9150604051806101200160405280838152602001828152602001878152602001868152602001858152602001336001600160a01b03168152602001428152602001848152602001600115158152506000836040516106189190611306565b90815260405190819003602001902081518190610635908261143c565b506020820151600182015560408201516002820190610654908261143c565b5060608201516003820190610669908261143c565b506080820151600482015560a08201516005820180546001600160a01b0319166001600160a01b0390921691909117905560c0820151600682015560e082015160078201906106b8908261143c565b5061010091909101516008909101805460ff191691151591909117905560008181526001602052604090206106ed838261143c565b5033600090815260026020908152604082208054600181018255908352912001610717838261143c565b506003805490600061072883611512565b9190505550336001600160a01b031681836040516107469190611306565b60405180910390207fe6c983eb41ceffcbdd7a5f6c460b3f725dfe7286ca7d739d7d270e99f976e616894260405161077f92919061152b565b60405180910390a45095945050505050565b606081516040146107b45760405162461bcd60e51b81526004016101a6906113a4565b60006107bf83610c02565b60008181526001602052604090208054919250906107dc9061136a565b80601f01602080910402602001604051908101604052809291908181526020018280546108089061136a565b80156108555780601f1061082a57610100808354040283529160200191610855565b820191906000526020600020905b81548152906001019060200180831161083857829003601f168201915b5050505050915050919050565b6001600160a01b0381166000908152600260209081526040808320805482518185028101850190935280835260609492939192909184015b828210156109465783829060005260206000200180546108b99061136a565b80601f01602080910402602001604051908101604052809291908181526020018280546108e59061136a565b80156109325780601f1061090757610100808354040283529160200191610932565b820191906000526020600020905b81548152906001019060200180831161091557829003601f168201915b50505050508152602001906001019061089a565b505050509050919050565b806000816040516109629190611306565b9081526040519081900360200190206008015460ff166109945760405162461bcd60e51b81526004016101a690611322565b6000826040516109a49190611306565b90815260405190819003602001902060050154336001600160a01b0390911614806109d957506004546001600160a01b031633145b610a255760405162461bcd60e51b815260206004820152601c60248201527f46696c6552656769737472793a206e6f7420617574686f72697a65640000000060448201526064016101a6565b60008083604051610a369190611306565b908152604051908190036020018120600801805492151560ff1990931692909217909155610a65908390611306565b60408051918290038220338352426020840152917fa200475b69e9608cfe8e486fe4a126c3cd199ee55fb43a44e289dba365617fb3910160405180910390a25050565b604080518082018252601081526f181899199a1a9b1b9c1cb0b131b232b360811b6020820152815182815260608181018452926000919060208201818036833701905050905060005b6020811015610bfa57826004868360208110610b0f57610b0f61154d565b835191901a90911c60ff16908110610b2957610b2961154d565b01602001516001600160f81b03191682610b44836002611563565b81518110610b5457610b5461154d565b60200101906001600160f81b031916908160001a90535082858260208110610b7e57610b7e61154d565b1a60f81b60f81c600f1660ff1681518110610b9b57610b9b61154d565b01602001516001600160f81b03191682610bb6836002611563565b610bc190600161157a565b81518110610bd157610bd161154d565b60200101906001600160f81b031916908160001a90535080610bf281611512565b915050610af1565b509392505050565b80516000908290604014610c6a5760405162461bcd60e51b815260206004820152602960248201527f46696c6552656769737472793a2068657820737472696e67206d75737420626560448201526820363420636861727360b81b60648201526084016101a6565b60005b6020811015610d0d576000610cab83610c87846002611563565b81518110610c9757610c9761154d565b01602001516001600160f81b031916610ec0565b90506000610cc984610cbe856002611563565b610c8790600161157a565b9050610ff0600483901b168117610ce184601f61158d565b610cec906008611563565b60ff909116901b949094179350819050610d0581611512565b915050610c6d565b5050919050565b60606000848484604051602001610d509392919092835260609190911b6bffffffffffffffffffffffff19166020830152603482015260540190565b60408051601f198184030181528282528051602091820120838301835260108085526f181899199a1a9b1b9c1ca0a121a222a360811b838601528351818152808501909452909450600092918201818036833701905050905060005b6008811015610eb557826004858360208110610dca57610dca61154d565b835191901a90911c60ff16908110610de457610de461154d565b01602001516001600160f81b03191682610dff836002611563565b81518110610e0f57610e0f61154d565b60200101906001600160f81b031916908160001a90535082848260208110610e3957610e3961154d565b1a60f81b60f81c600f1660ff1681518110610e5657610e5661154d565b01602001516001600160f81b03191682610e71836002611563565b610e7c90600161157a565b81518110610e8c57610e8c61154d565b60200101906001600160f81b031916908160001a90535080610ead81611512565b915050610dac565b509695505050505050565b6000600360fc1b6001600160f81b0319831610801590610eee5750603960f81b6001600160f81b0319831611155b15610f0857610f02603060f884901c6115a0565b92915050565b606160f81b6001600160f81b0319831610801590610f345750603360f91b6001600160f81b0319831611155b15610f54576061610f4a60f884901c600a6115b9565b610f0291906115a0565b604160f81b6001600160f81b0319831610801590610f805750602360f91b6001600160f81b0319831611155b15610f96576041610f4a60f884901c600a6115b9565b60405162461bcd60e51b815260206004820152602360248201527f46696c6552656769737472793a20696e76616c696420686578206368617261636044820152623a32b960e91b60648201526084016101a6565b634e487b7160e01b600052604160045260246000fd5b600082601f83011261101157600080fd5b813567ffffffffffffffff8082111561102c5761102c610fea565b604051601f8301601f19908116603f0116810190828211818310171561105457611054610fea565b8160405283815286602085880101111561106d57600080fd5b836020870160208301376000602085830101528094505050505092915050565b60006020828403121561109f57600080fd5b813567ffffffffffffffff8111156110b657600080fd5b6110c284828501611000565b949350505050565b60005b838110156110e55781810151838201526020016110cd565b50506000910152565b600081518084526111068160208601602086016110ca565b601f01601f19169290920160200192915050565b600061010080835261112e8184018c6110ee565b90508281036020840152611142818b6110ee565b90508281036040840152611156818a6110ee565b9050828103606084015261116a81896110ee565b608084018890526001600160a01b03871660a085015260c0840186905283810360e0850152905061119b81856110ee565b9b9a5050505050505050505050565b600080600080600060a086880312156111c257600080fd5b853567ffffffffffffffff808211156111da57600080fd5b6111e689838a01611000565b965060208801359150808211156111fc57600080fd5b61120889838a01611000565b9550604088013591508082111561121e57600080fd5b61122a89838a01611000565b945060608801359350608088013591508082111561124757600080fd5b5061125488828901611000565b9150509295509295909350565b60208152600061127460208301846110ee565b9392505050565b60006020828403121561128d57600080fd5b81356001600160a01b038116811461127457600080fd5b6000602080830181845280855180835260408601915060408160051b870101925083870160005b828110156112f957603f198886030184526112e78583516110ee565b945092850192908501906001016112cb565b5092979650505050505050565b600082516113188184602087016110ca565b9190910192915050565b60208082526028908201527f46696c6552656769737472793a2066696c65206e6f7420666f756e64206f7220604082015267696e61637469766560c01b606082015260800190565b600181811c9082168061137e57607f821691505b60208210810361139e57634e487b7160e01b600052602260045260246000fd5b50919050565b60208082526029908201527f46696c6552656769737472793a20696e76616c6964205348412d3235362068616040820152680e6d040d8cadccee8d60bb1b606082015260800190565b601f82111561143757600081815260208120601f850160051c810160208610156114145750805b601f850160051c820191505b8181101561143357828155600101611420565b5050505b505050565b815167ffffffffffffffff81111561145657611456610fea565b61146a81611464845461136a565b846113ed565b602080601f83116001811461149f57600084156114875750858301515b600019600386901b1c1916600185901b178555611433565b600085815260208120601f198616915b828110156114ce578886015182559484019460019091019084016114af565b50858210156114ec5787850151600019600388901b60f8161c191681555b5050505050600190811b01905550565b634e487b7160e01b600052601160045260246000fd5b600060018201611524576115246114fc565b5060010190565b60408152600061153e60408301856110ee565b90508260208301529392505050565b634e487b7160e01b600052603260045260246000fd5b8082028115828204841417610f0257610f026114fc565b80820180821115610f0257610f026114fc565b81810381811115610f0257610f026114fc565b60ff8281168282160390811115610f0257610f026114fc565b60ff8181168382160190811115610f0257610f026114fc56fea26469706673582212208cffadd88d5146a6bee54c894c1f6768399a3f1c3a630f19a5b40b923d4854dd64736f6c63430008140033",
  "linkReferences": {},
  "deployedLinkReferences": {}
}